{
  "contractName": "Storage",
  "abi": [
    {
      "inputs": [
        {
          "internalType": "uint256",
          "name": "",
          "type": "uint256"
        }
      ],
      "name": "medicalHistory",
      "outputs": [
        {
          "internalType": "uint256",
          "name": "userIndex",
          "type": "uint256"
        }
      ],
      "stateMutability": "view",
      "type": "function",
      "constant": true
    },
    {
      "inputs": [
        {
          "internalType": "uint256",
          "name": "",
          "type": "uint256"
        }
      ],
      "name": "users",
      "outputs": [
        {
          "internalType": "string",
          "name": "userID",
          "type": "string"
        },
        {
          "internalType": "string",
          "name": "wallet",
          "type": "string"
        },
        {
          "internalType": "string",
          "name": "firstName",
          "type": "string"
        },
        {
          "internalType": "string",
          "name": "lastName",
          "type": "string"
        },
        {
          "internalType": "string",
          "name": "email",
          "type": "string"
        },
        {
          "internalType": "string",
          "name": "dateOfBirth",
          "type": "string"
        }
      ],
      "stateMutability": "view",
      "type": "function",
      "constant": true
    },
    {
      "inputs": [
        {
          "internalType": "string",
          "name": "userID",
          "type": "string"
        },
        {
          "internalType": "string",
          "name": "wallet",
          "type": "string"
        },
        {
          "internalType": "string",
          "name": "firstName",
          "type": "string"
        },
        {
          "internalType": "string",
          "name": "lastName",
          "type": "string"
        },
        {
          "internalType": "string",
          "name": "email",
          "type": "string"
        },
        {
          "internalType": "string",
          "name": "dateOfBirth",
          "type": "string"
        }
      ],
      "name": "storeUser",
      "outputs": [],
      "stateMutability": "nonpayable",
      "type": "function"
    },
    {
      "inputs": [],
      "name": "storeMedicalInfo",
      "outputs": [],
      "stateMutability": "nonpayable",
      "type": "function"
    },
    {
      "inputs": [
        {
          "internalType": "uint256",
          "name": "index",
          "type": "uint256"
        }
      ],
      "name": "retrieveUser",
      "outputs": [
        {
          "components": [
            {
              "internalType": "string",
              "name": "userID",
              "type": "string"
            },
            {
              "internalType": "string",
              "name": "wallet",
              "type": "string"
            },
            {
              "internalType": "string",
              "name": "firstName",
              "type": "string"
            },
            {
              "internalType": "string",
              "name": "lastName",
              "type": "string"
            },
            {
              "internalType": "string",
              "name": "email",
              "type": "string"
            },
            {
              "internalType": "string",
              "name": "dateOfBirth",
              "type": "string"
            }
          ],
          "internalType": "struct Storage.User",
          "name": "",
          "type": "tuple"
        }
      ],
      "stateMutability": "view",
      "type": "function",
      "constant": true
    }
  ],
  "bytecode": "0x608060405234801561001057600080fd5b50610f38806100206000396000f3fe608060405234801561001057600080fd5b50600436106100565760003560e01c8062f7cd991461005b5780632c57ca8314610081578063365b98b214610096578063a94b4850146100bb578063ee788d7114610104575b600080fd5b61006e610069366004610b85565b610124565b6040519081526020015b60405180910390f35b61009461008f366004610be7565b610145565b005b6100a96100a4366004610b85565b610398565b60405161007896959493929190610d77565b610094604080516020810190915260018082528054808201825560009190915290517fb10e2d527612073b26eecdfd717e6a320cf44b4afac2b0732d9fcbe2b7fa0cf690910155565b610117610112366004610b85565b610714565b6040516100789190610df9565b6001818154811061013457600080fd5b600091825260209091200154905081565b60006040518060c001604052808e8e8080601f016020809104026020016040519081016040528093929190818152602001838380828437600092019190915250505090825250604080516020601f8f018190048102820181019092528d815291810191908e908e9081908401838280828437600092019190915250505090825250604080516020601f8d018190048102820181019092528b815291810191908c908c9081908401838280828437600092019190915250505090825250604080516020601f8b0181900481028201810190925289815291810191908a908a9081908401838280828437600092019190915250505090825250604080516020601f890181900481028201810190925287815291810191908890889081908401838280828437600092019190915250505090825250604080516020601f8701819004810282018101909252858152918101919086908690819084018382808284376000920182905250939094525050805460018101825590805282518051939450849360069092027f290decd9548b62a8d60345a988386fc84ba6bc95484008f6362f93160ef3e5630192506102fd91839160200190610aec565b5060208281015180516103169260018501920190610aec565b5060408201518051610332916002840191602090910190610aec565b506060820151805161034e916003840191602090910190610aec565b506080820151805161036a916004840191602090910190610aec565b5060a08201518051610386916005840191602090910190610aec565b50505050505050505050505050505050565b600081815481106103a857600080fd5b90600052602060002090600602016000915090508060000180546103cb90610eb1565b80601f01602080910402602001604051908101604052809291908181526020018280546103f790610eb1565b80156104445780601f1061041957610100808354040283529160200191610444565b820191906000526020600020905b81548152906001019060200180831161042757829003601f168201915b50505050509080600101805461045990610eb1565b80601f016020809104026020016040519081016040528092919081815260200182805461048590610eb1565b80156104d25780601f106104a7576101008083540402835291602001916104d2565b820191906000526020600020905b8154815290600101906020018083116104b557829003601f168201915b5050505050908060020180546104e790610eb1565b80601f016020809104026020016040519081016040528092919081815260200182805461051390610eb1565b80156105605780601f1061053557610100808354040283529160200191610560565b820191906000526020600020905b81548152906001019060200180831161054357829003601f168201915b50505050509080600301805461057590610eb1565b80601f01602080910402602001604051908101604052809291908181526020018280546105a190610eb1565b80156105ee5780601f106105c3576101008083540402835291602001916105ee565b820191906000526020600020905b8154815290600101906020018083116105d157829003601f168201915b50505050509080600401805461060390610eb1565b80601f016020809104026020016040519081016040528092919081815260200182805461062f90610eb1565b801561067c5780601f106106515761010080835404028352916020019161067c565b820191906000526020600020905b81548152906001019060200180831161065f57829003601f168201915b50505050509080600501805461069190610eb1565b80601f01602080910402602001604051908101604052809291908181526020018280546106bd90610eb1565b801561070a5780601f106106df5761010080835404028352916020019161070a565b820191906000526020600020905b8154815290600101906020018083116106ed57829003601f168201915b5050505050905086565b61074d6040518060c001604052806060815260200160608152602001606081526020016060815260200160608152602001606081525090565b6000828154811061076057610760610eec565b90600052602060002090600602016040518060c001604052908160008201805461078990610eb1565b80601f01602080910402602001604051908101604052809291908181526020018280546107b590610eb1565b80156108025780601f106107d757610100808354040283529160200191610802565b820191906000526020600020905b8154815290600101906020018083116107e557829003601f168201915b5050505050815260200160018201805461081b90610eb1565b80601f016020809104026020016040519081016040528092919081815260200182805461084790610eb1565b80156108945780601f1061086957610100808354040283529160200191610894565b820191906000526020600020905b81548152906001019060200180831161087757829003601f168201915b505050505081526020016002820180546108ad90610eb1565b80601f01602080910402602001604051908101604052809291908181526020018280546108d990610eb1565b80156109265780601f106108fb57610100808354040283529160200191610926565b820191906000526020600020905b81548152906001019060200180831161090957829003601f168201915b5050505050815260200160038201805461093f90610eb1565b80601f016020809104026020016040519081016040528092919081815260200182805461096b90610eb1565b80156109b85780601f1061098d576101008083540402835291602001916109b8565b820191906000526020600020905b81548152906001019060200180831161099b57829003601f168201915b505050505081526020016004820180546109d190610eb1565b80601f01602080910402602001604051908101604052809291908181526020018280546109fd90610eb1565b8015610a4a5780601f10610a1f57610100808354040283529160200191610a4a565b820191906000526020600020905b815481529060010190602001808311610a2d57829003601f168201915b50505050508152602001600582018054610a6390610eb1565b80601f0160208091040260200160405190810160405280929190818152602001828054610a8f90610eb1565b8015610adc5780601f10610ab157610100808354040283529160200191610adc565b820191906000526020600020905b815481529060010190602001808311610abf57829003601f168201915b5050505050815250509050919050565b828054610af890610eb1565b90600052602060002090601f016020900481019282610b1a5760008555610b60565b82601f10610b3357805160ff1916838001178555610b60565b82800160010185558215610b60579182015b82811115610b60578251825591602001919060010190610b45565b50610b6c929150610b70565b5090565b5b80821115610b6c5760008155600101610b71565b600060208284031215610b9757600080fd5b5035919050565b60008083601f840112610bb057600080fd5b50813567ffffffffffffffff811115610bc857600080fd5b602083019150836020828501011115610be057600080fd5b9250929050565b60008060008060008060008060008060008060c08d8f031215610c0957600080fd5b67ffffffffffffffff8d351115610c1f57600080fd5b610c2c8e8e358f01610b9e565b909c509a5067ffffffffffffffff60208e01351115610c4a57600080fd5b610c5a8e60208f01358f01610b9e565b909a50985067ffffffffffffffff60408e01351115610c7857600080fd5b610c888e60408f01358f01610b9e565b909850965067ffffffffffffffff60608e01351115610ca657600080fd5b610cb68e60608f01358f01610b9e565b909650945067ffffffffffffffff60808e01351115610cd457600080fd5b610ce48e60808f01358f01610b9e565b909450925067ffffffffffffffff60a08e01351115610d0257600080fd5b610d128e60a08f01358f01610b9e565b81935080925050509295989b509295989b509295989b565b6000815180845260005b81811015610d5057602081850181015186830182015201610d34565b81811115610d62576000602083870101525b50601f01601f19169290920160200192915050565b60c081526000610d8a60c0830189610d2a565b8281036020840152610d9c8189610d2a565b90508281036040840152610db08188610d2a565b90508281036060840152610dc48187610d2a565b90508281036080840152610dd88186610d2a565b905082810360a0840152610dec8185610d2a565b9998505050505050505050565b602081526000825160c06020840152610e1560e0840182610d2a565b90506020840151601f1980858403016040860152610e338383610d2a565b92506040860151915080858403016060860152610e508383610d2a565b92506060860151915080858403016080860152610e6d8383610d2a565b925060808601519150808584030160a0860152610e8a8383610d2a565b925060a08601519150808584030160c086015250610ea88282610d2a565b95945050505050565b600181811c90821680610ec557607f821691505b60208210811415610ee657634e487b7160e01b600052602260045260246000fd5b50919050565b634e487b7160e01b600052603260045260246000fdfea2646970667358221220450912b324c17b64892e93fbb3f0524b7bece274634797e238af009dd6caa0ef64736f6c634300080a0033",
  "immutableReferences": {},
  "source": "pragma solidity ^0.8.0;\n\n\ncontract Storage{\n    User[] public users;\n    medicalInformation[] public medicalHistory;\n\n    struct User {\n        string userID;\n        string wallet;\n        string firstName;\n        string lastName;\n        string email;\n        string dateOfBirth;\n    }\n\n    struct medicalInformation{\n        uint userIndex;\n    }\n\n    function storeUser(string calldata userID,string calldata wallet,string calldata firstName, string calldata lastName, string calldata email,string calldata dateOfBirth) external {\n        User memory entry = User(userID,wallet,firstName,lastName,email,dateOfBirth);\n        users.push(entry);\n    }\n\n    function storeMedicalInfo() external {\n        medicalInformation memory entry = medicalInformation(1);\n        medicalHistory.push(entry);\n    }\n\n    function retrieveUser(uint index) public view returns (User memory){\n        return users[index];\n    }\n}",
  "sourcePath": "/Users/eoinfehily/Documents/GitHub/GroupProject21/TokenCrowdsale Deployment/CrowdSale/contracts/Storage.sol",
  "compiler": {
    "name": "solc",
    "version": "0.8.10+commit.fc410830.Emscripten.clang"
  },
  "schemaVersion": "3.4.3",
  "updatedAt": "2021-11-29T22:34:48.264Z",
  "networkType": "ethereum",
  "devdoc": {
    "kind": "dev",
    "methods": {},
    "version": 1
  },
  "userdoc": {
    "kind": "user",
    "methods": {},
    "version": 1
  }
}